{
  "contractName": "ITHelpdesk",
  "abi": [
    {
      "inputs": [],
      "stateMutability": "nonpayable",
      "type": "constructor"
    },
    {
      "anonymous": false,
      "inputs": [
        {
          "indexed": true,
          "internalType": "address",
          "name": "owner",
          "type": "address"
        },
        {
          "indexed": true,
          "internalType": "address",
          "name": "approved",
          "type": "address"
        },
        {
          "indexed": true,
          "internalType": "uint256",
          "name": "tokenId",
          "type": "uint256"
        }
      ],
      "name": "Approval",
      "type": "event"
    },
    {
      "anonymous": false,
      "inputs": [
        {
          "indexed": true,
          "internalType": "address",
          "name": "owner",
          "type": "address"
        },
        {
          "indexed": true,
          "internalType": "address",
          "name": "operator",
          "type": "address"
        },
        {
          "indexed": false,
          "internalType": "bool",
          "name": "approved",
          "type": "bool"
        }
      ],
      "name": "ApprovalForAll",
      "type": "event"
    },
    {
      "anonymous": false,
      "inputs": [
        {
          "indexed": true,
          "internalType": "uint256",
          "name": "ticketId",
          "type": "uint256"
        },
        {
          "indexed": false,
          "internalType": "string",
          "name": "title",
          "type": "string"
        },
        {
          "indexed": false,
          "internalType": "string",
          "name": "issue",
          "type": "string"
        },
        {
          "indexed": false,
          "internalType": "string",
          "name": "description",
          "type": "string"
        },
        {
          "indexed": false,
          "internalType": "uint8",
          "name": "difficulty",
          "type": "uint8"
        },
        {
          "indexed": false,
          "internalType": "uint8",
          "name": "deviceType",
          "type": "uint8"
        }
      ],
      "name": "TicketCreated",
      "type": "event"
    },
    {
      "anonymous": false,
      "inputs": [
        {
          "indexed": true,
          "internalType": "address",
          "name": "from",
          "type": "address"
        },
        {
          "indexed": true,
          "internalType": "address",
          "name": "to",
          "type": "address"
        },
        {
          "indexed": true,
          "internalType": "uint256",
          "name": "tokenId",
          "type": "uint256"
        }
      ],
      "name": "Transfer",
      "type": "event"
    },
    {
      "inputs": [
        {
          "internalType": "address",
          "name": "to",
          "type": "address"
        },
        {
          "internalType": "uint256",
          "name": "tokenId",
          "type": "uint256"
        }
      ],
      "name": "approve",
      "outputs": [],
      "stateMutability": "nonpayable",
      "type": "function"
    },
    {
      "inputs": [
        {
          "internalType": "address",
          "name": "owner",
          "type": "address"
        }
      ],
      "name": "balanceOf",
      "outputs": [
        {
          "internalType": "uint256",
          "name": "",
          "type": "uint256"
        }
      ],
      "stateMutability": "view",
      "type": "function"
    },
    {
      "inputs": [],
      "name": "contractOwner",
      "outputs": [
        {
          "internalType": "address payable",
          "name": "",
          "type": "address"
        }
      ],
      "stateMutability": "view",
      "type": "function"
    },
    {
      "inputs": [
        {
          "internalType": "uint256",
          "name": "tokenId",
          "type": "uint256"
        }
      ],
      "name": "getApproved",
      "outputs": [
        {
          "internalType": "address",
          "name": "",
          "type": "address"
        }
      ],
      "stateMutability": "view",
      "type": "function"
    },
    {
      "inputs": [
        {
          "internalType": "address",
          "name": "owner",
          "type": "address"
        },
        {
          "internalType": "address",
          "name": "operator",
          "type": "address"
        }
      ],
      "name": "isApprovedForAll",
      "outputs": [
        {
          "internalType": "bool",
          "name": "",
          "type": "bool"
        }
      ],
      "stateMutability": "view",
      "type": "function"
    },
    {
      "inputs": [],
      "name": "name",
      "outputs": [
        {
          "internalType": "string",
          "name": "",
          "type": "string"
        }
      ],
      "stateMutability": "view",
      "type": "function"
    },
    {
      "inputs": [
        {
          "internalType": "uint256",
          "name": "tokenId",
          "type": "uint256"
        }
      ],
      "name": "ownerOf",
      "outputs": [
        {
          "internalType": "address",
          "name": "",
          "type": "address"
        }
      ],
      "stateMutability": "view",
      "type": "function"
    },
    {
      "inputs": [
        {
          "internalType": "address",
          "name": "from",
          "type": "address"
        },
        {
          "internalType": "address",
          "name": "to",
          "type": "address"
        },
        {
          "internalType": "uint256",
          "name": "tokenId",
          "type": "uint256"
        }
      ],
      "name": "safeTransferFrom",
      "outputs": [],
      "stateMutability": "nonpayable",
      "type": "function"
    },
    {
      "inputs": [
        {
          "internalType": "address",
          "name": "from",
          "type": "address"
        },
        {
          "internalType": "address",
          "name": "to",
          "type": "address"
        },
        {
          "internalType": "uint256",
          "name": "tokenId",
          "type": "uint256"
        },
        {
          "internalType": "bytes",
          "name": "data",
          "type": "bytes"
        }
      ],
      "name": "safeTransferFrom",
      "outputs": [],
      "stateMutability": "nonpayable",
      "type": "function"
    },
    {
      "inputs": [
        {
          "internalType": "address",
          "name": "operator",
          "type": "address"
        },
        {
          "internalType": "bool",
          "name": "approved",
          "type": "bool"
        }
      ],
      "name": "setApprovalForAll",
      "outputs": [],
      "stateMutability": "nonpayable",
      "type": "function"
    },
    {
      "inputs": [
        {
          "internalType": "bytes4",
          "name": "interfaceId",
          "type": "bytes4"
        }
      ],
      "name": "supportsInterface",
      "outputs": [
        {
          "internalType": "bool",
          "name": "",
          "type": "bool"
        }
      ],
      "stateMutability": "view",
      "type": "function"
    },
    {
      "inputs": [],
      "name": "symbol",
      "outputs": [
        {
          "internalType": "string",
          "name": "",
          "type": "string"
        }
      ],
      "stateMutability": "view",
      "type": "function"
    },
    {
      "inputs": [],
      "name": "ticketCount",
      "outputs": [
        {
          "internalType": "uint256",
          "name": "",
          "type": "uint256"
        }
      ],
      "stateMutability": "view",
      "type": "function"
    },
    {
      "inputs": [
        {
          "internalType": "uint256",
          "name": "",
          "type": "uint256"
        }
      ],
      "name": "tickets",
      "outputs": [
        {
          "internalType": "uint256",
          "name": "id",
          "type": "uint256"
        },
        {
          "internalType": "address",
          "name": "user",
          "type": "address"
        },
        {
          "internalType": "string",
          "name": "title",
          "type": "string"
        },
        {
          "internalType": "string",
          "name": "issue",
          "type": "string"
        },
        {
          "internalType": "string",
          "name": "description",
          "type": "string"
        },
        {
          "internalType": "bool",
          "name": "resolved",
          "type": "bool"
        },
        {
          "internalType": "enum ITHelpdesk.Difficulty",
          "name": "difficulty",
          "type": "uint8"
        },
        {
          "internalType": "enum ITHelpdesk.DeviceType",
          "name": "deviceType",
          "type": "uint8"
        },
        {
          "internalType": "string",
          "name": "solution",
          "type": "string"
        }
      ],
      "stateMutability": "view",
      "type": "function"
    },
    {
      "inputs": [
        {
          "internalType": "uint256",
          "name": "tokenId",
          "type": "uint256"
        }
      ],
      "name": "tokenURI",
      "outputs": [
        {
          "internalType": "string",
          "name": "",
          "type": "string"
        }
      ],
      "stateMutability": "view",
      "type": "function"
    },
    {
      "inputs": [
        {
          "internalType": "address",
          "name": "from",
          "type": "address"
        },
        {
          "internalType": "address",
          "name": "to",
          "type": "address"
        },
        {
          "internalType": "uint256",
          "name": "tokenId",
          "type": "uint256"
        }
      ],
      "name": "transferFrom",
      "outputs": [],
      "stateMutability": "nonpayable",
      "type": "function"
    },
    {
      "inputs": [
        {
          "internalType": "string",
          "name": "_title",
          "type": "string"
        },
        {
          "internalType": "string",
          "name": "_issue",
          "type": "string"
        },
        {
          "internalType": "string",
          "name": "_description",
          "type": "string"
        },
        {
          "internalType": "uint8",
          "name": "_difficulty",
          "type": "uint8"
        },
        {
          "internalType": "uint8",
          "name": "_deviceType",
          "type": "uint8"
        }
      ],
      "name": "createTicket",
      "outputs": [
        {
          "internalType": "uint256",
          "name": "",
          "type": "uint256"
        }
      ],
      "stateMutability": "payable",
      "type": "function"
    },
    {
      "inputs": [
        {
          "internalType": "uint256",
          "name": "_ticketId",
          "type": "uint256"
        },
        {
          "internalType": "string",
          "name": "_title",
          "type": "string"
        },
        {
          "internalType": "string",
          "name": "_issue",
          "type": "string"
        },
        {
          "internalType": "string",
          "name": "_description",
          "type": "string"
        },
        {
          "internalType": "enum ITHelpdesk.Difficulty",
          "name": "_difficulty",
          "type": "uint8"
        },
        {
          "internalType": "enum ITHelpdesk.DeviceType",
          "name": "_deviceType",
          "type": "uint8"
        }
      ],
      "name": "updateTicket",
      "outputs": [],
      "stateMutability": "nonpayable",
      "type": "function"
    },
    {
      "inputs": [
        {
          "internalType": "uint256",
          "name": "_ticketId",
          "type": "uint256"
        },
        {
          "internalType": "bool",
          "name": "_resolved",
          "type": "bool"
        }
      ],
      "name": "changeStatus",
      "outputs": [],
      "stateMutability": "nonpayable",
      "type": "function"
    },
    {
      "inputs": [
        {
          "internalType": "uint256",
          "name": "_ticketId",
          "type": "uint256"
        },
        {
          "internalType": "string",
          "name": "_solution",
          "type": "string"
        }
      ],
      "name": "ticketSolution",
      "outputs": [],
      "stateMutability": "nonpayable",
      "type": "function"
    },
    {
      "inputs": [
        {
          "internalType": "uint256",
          "name": "_ticketId",
          "type": "uint256"
        },
        {
          "internalType": "string",
          "name": "_note",
          "type": "string"
        }
      ],
      "name": "ticketNotes",
      "outputs": [],
      "stateMutability": "nonpayable",
      "type": "function"
    },
    {
      "inputs": [
        {
          "internalType": "uint256",
          "name": "_ticketId",
          "type": "uint256"
        }
      ],
      "name": "resolveTicket",
      "outputs": [],
      "stateMutability": "nonpayable",
      "type": "function"
    },
    {
      "inputs": [
        {
          "internalType": "uint256",
          "name": "_ticketId",
          "type": "uint256"
        }
      ],
      "name": "getTicketStatus",
      "outputs": [
        {
          "internalType": "bool",
          "name": "",
          "type": "bool"
        }
      ],
      "stateMutability": "view",
      "type": "function"
    },
    {
      "inputs": [
        {
          "internalType": "uint256",
          "name": "_ticketId",
          "type": "uint256"
        }
      ],
      "name": "getTicketDifficulty",
      "outputs": [
        {
          "internalType": "enum ITHelpdesk.Difficulty",
          "name": "",
          "type": "uint8"
        }
      ],
      "stateMutability": "view",
      "type": "function"
    },
    {
      "inputs": [],
      "name": "getNumberOfTickets",
      "outputs": [
        {
          "internalType": "uint256",
          "name": "",
          "type": "uint256"
        }
      ],
      "stateMutability": "view",
      "type": "function"
    }
  ],
  "bytecode": "0x60806040523480156200001157600080fd5b506040518060400160405280601181526020017f43727970746f54656368537570706f72740000000000000000000000000000008152506040518060400160405280600381526020017f435453000000000000000000000000000000000000000000000000000000000081525081600090816200008f919062000365565b508060019081620000a1919062000365565b50505033600860006101000a81548173ffffffffffffffffffffffffffffffffffffffff021916908373ffffffffffffffffffffffffffffffffffffffff1602179055506200044c565b600081519050919050565b7f4e487b7100000000000000000000000000000000000000000000000000000000600052604160045260246000fd5b7f4e487b7100000000000000000000000000000000000000000000000000000000600052602260045260246000fd5b600060028204905060018216806200016d57607f821691505b60208210810362000183576200018262000125565b5b50919050565b60008190508160005260206000209050919050565b60006020601f8301049050919050565b600082821b905092915050565b600060088302620001ed7fffffffffffffffffffffffffffffffffffffffffffffffffffffffffffffffff82620001ae565b620001f98683620001ae565b95508019841693508086168417925050509392505050565b6000819050919050565b6000819050919050565b600062000246620002406200023a8462000211565b6200021b565b62000211565b9050919050565b6000819050919050565b620002628362000225565b6200027a62000271826200024d565b848454620001bb565b825550505050565b600090565b6200029162000282565b6200029e81848462000257565b505050565b5b81811015620002c657620002ba60008262000287565b600181019050620002a4565b5050565b601f8211156200031557620002df8162000189565b620002ea846200019e565b81016020851015620002fa578190505b6200031262000309856200019e565b830182620002a3565b50505b505050565b600082821c905092915050565b60006200033a600019846008026200031a565b1980831691505092915050565b600062000355838362000327565b9150826002028217905092915050565b6200037082620000eb565b67ffffffffffffffff8111156200038c576200038b620000f6565b5b62000398825462000154565b620003a5828285620002ca565b600060209050601f831160018114620003dd5760008415620003c8578287015190505b620003d4858262000347565b86555062000444565b601f198416620003ed8662000189565b60005b828110156200041757848901518255600182019150602085019450602081019050620003f0565b8683101562000437578489015162000433601f89168262000327565b8355505b6001600288020188555050505b505050505050565b613e3d806200045c6000396000f3fe6080604052600436106101665760003560e01c806395d89b41116100d1578063cfbd900f1161008a578063e985e9c511610064578063e985e9c51461056d578063f893a429146105aa578063fa2693b3146105d3578063fb87774c146105fc57610166565b8063cfbd900f146104e9578063d0018b6114610514578063e23e11481461054457610166565b806395d89b41146103c7578063a22cb465146103f2578063b88d4fde1461041b578063bacc10ae14610444578063c87b56dd14610481578063ce606ee0146104be57610166565b806345d8c7861161012357806345d8c7861461028b57806350b44712146102b45780636352211e146102f95780636b9d27381461033657806370a082311461035f5780639582260a1461039c57610166565b806301ffc9a71461016b57806306fdde03146101a8578063081812fc146101d3578063095ea7b31461021057806323b872dd1461023957806342842e0e14610262575b600080fd5b34801561017757600080fd5b50610192600480360381019061018d9190612590565b610639565b60405161019f91906125d8565b60405180910390f35b3480156101b457600080fd5b506101bd61071b565b6040516101ca9190612683565b60405180910390f35b3480156101df57600080fd5b506101fa60048036038101906101f591906126db565b6107ad565b6040516102079190612749565b60405180910390f35b34801561021c57600080fd5b5061023760048036038101906102329190612790565b6107f3565b005b34801561024557600080fd5b50610260600480360381019061025b91906127d0565b61090a565b005b34801561026e57600080fd5b50610289600480360381019061028491906127d0565b61096a565b005b34801561029757600080fd5b506102b260048036038101906102ad91906126db565b61098a565b005b3480156102c057600080fd5b506102db60048036038101906102d691906126db565b610b13565b6040516102f0999897969594939291906128f1565b60405180910390f35b34801561030557600080fd5b50610320600480360381019061031b91906126db565b610dc8565b60405161032d9190612749565b60405180910390f35b34801561034257600080fd5b5061035d60048036038101906103589190612acf565b610e4e565b005b34801561036b57600080fd5b5061038660048036038101906103819190612b2b565b610f7d565b6040516103939190612b58565b60405180910390f35b3480156103a857600080fd5b506103b1611034565b6040516103be9190612b58565b60405180910390f35b3480156103d357600080fd5b506103dc61103e565b6040516103e99190612683565b60405180910390f35b3480156103fe57600080fd5b5061041960048036038101906104149190612b9f565b6110d0565b005b34801561042757600080fd5b50610442600480360381019061043d9190612c80565b6110e6565b005b34801561045057600080fd5b5061046b600480360381019061046691906126db565b611148565b6040516104789190612d03565b60405180910390f35b34801561048d57600080fd5b506104a860048036038101906104a391906126db565b611175565b6040516104b59190612683565b60405180910390f35b3480156104ca57600080fd5b506104d36111dd565b6040516104e09190612d3f565b60405180910390f35b3480156104f557600080fd5b506104fe611203565b60405161050b9190612b58565b60405180910390f35b61052e60048036038101906105299190612d93565b611209565b60405161053b9190612b58565b60405180910390f35b34801561055057600080fd5b5061056b60048036038101906105669190612eac565b61156a565b005b34801561057957600080fd5b50610594600480360381019061058f9190612f8d565b6116fe565b6040516105a191906125d8565b60405180910390f35b3480156105b657600080fd5b506105d160048036038101906105cc9190612acf565b611792565b005b3480156105df57600080fd5b506105fa60048036038101906105f59190612fcd565b6117df565b005b34801561060857600080fd5b50610623600480360381019061061e91906126db565b6118e5565b60405161063091906125d8565b60405180910390f35b60007f80ac58cd000000000000000000000000000000000000000000000000000000007bffffffffffffffffffffffffffffffffffffffffffffffffffffffff1916827bffffffffffffffffffffffffffffffffffffffffffffffffffffffff1916148061070457507f5b5e139f000000000000000000000000000000000000000000000000000000007bffffffffffffffffffffffffffffffffffffffffffffffffffffffff1916827bffffffffffffffffffffffffffffffffffffffffffffffffffffffff1916145b80610714575061071382611912565b5b9050919050565b60606000805461072a9061303c565b80601f01602080910402602001604051908101604052809291908181526020018280546107569061303c565b80156107a35780601f10610778576101008083540402835291602001916107a3565b820191906000526020600020905b81548152906001019060200180831161078657829003601f168201915b5050505050905090565b60006107b88261197c565b6004600083815260200190815260200160002060009054906101000a900473ffffffffffffffffffffffffffffffffffffffff169050919050565b60006107fe82610dc8565b90508073ffffffffffffffffffffffffffffffffffffffff168373ffffffffffffffffffffffffffffffffffffffff160361086e576040517f08c379a0000000000000000000000000000000000000000000000000000000008152600401610865906130df565b60405180910390fd5b8073ffffffffffffffffffffffffffffffffffffffff1661088d6119c7565b73ffffffffffffffffffffffffffffffffffffffff1614806108bc57506108bb816108b66119c7565b6116fe565b5b6108fb576040517f08c379a00000000000000000000000000000000000000000000000000000000081526004016108f290613171565b60405180910390fd5b61090583836119cf565b505050565b61091b6109156119c7565b82611a88565b61095a576040517f08c379a000000000000000000000000000000000000000000000000000000000815260040161095190613203565b60405180910390fd5b610965838383611b1d565b505050565b610985838383604051806020016040528060008152506110e6565b505050565b3373ffffffffffffffffffffffffffffffffffffffff166007600083815260200190815260200160002060010160009054906101000a900473ffffffffffffffffffffffffffffffffffffffff1673ffffffffffffffffffffffffffffffffffffffff1614610a2e576040517f08c379a0000000000000000000000000000000000000000000000000000000008152600401610a2590613295565b60405180910390fd5b6007600082815260200190815260200160002060050160009054906101000a900460ff1615610a92576040517f08c379a0000000000000000000000000000000000000000000000000000000008152600401610a8990613301565b60405180910390fd5b60016007600083815260200190815260200160002060050160006101000a81548160ff0219169083151502179055503373ffffffffffffffffffffffffffffffffffffffff166108fc670de0b6b3a76400009081150290604051600060405180830381858888f19350505050158015610b0f573d6000803e3d6000fd5b5050565b60076020528060005260406000206000915090508060000154908060010160009054906101000a900473ffffffffffffffffffffffffffffffffffffffff1690806002018054610b629061303c565b80601f0160208091040260200160405190810160405280929190818152602001828054610b8e9061303c565b8015610bdb5780601f10610bb057610100808354040283529160200191610bdb565b820191906000526020600020905b815481529060010190602001808311610bbe57829003601f168201915b505050505090806003018054610bf09061303c565b80601f0160208091040260200160405190810160405280929190818152602001828054610c1c9061303c565b8015610c695780601f10610c3e57610100808354040283529160200191610c69565b820191906000526020600020905b815481529060010190602001808311610c4c57829003601f168201915b505050505090806004018054610c7e9061303c565b80601f0160208091040260200160405190810160405280929190818152602001828054610caa9061303c565b8015610cf75780601f10610ccc57610100808354040283529160200191610cf7565b820191906000526020600020905b815481529060010190602001808311610cda57829003601f168201915b5050505050908060050160009054906101000a900460ff16908060050160019054906101000a900460ff16908060050160029054906101000a900460ff1690806006018054610d459061303c565b80601f0160208091040260200160405190810160405280929190818152602001828054610d719061303c565b8015610dbe5780601f10610d9357610100808354040283529160200191610dbe565b820191906000526020600020905b815481529060010190602001808311610da157829003601f168201915b5050505050905089565b600080610dd483611e16565b9050600073ffffffffffffffffffffffffffffffffffffffff168173ffffffffffffffffffffffffffffffffffffffff1603610e45576040517f08c379a0000000000000000000000000000000000000000000000000000000008152600401610e3c9061336d565b60405180910390fd5b80915050919050565b6007600083815260200190815260200160002060050160009054906101000a900460ff16610eb1576040517f08c379a0000000000000000000000000000000000000000000000000000000008152600401610ea8906133ff565b60405180910390fd5b3373ffffffffffffffffffffffffffffffffffffffff166007600084815260200190815260200160002060010160009054906101000a900473ffffffffffffffffffffffffffffffffffffffff1673ffffffffffffffffffffffffffffffffffffffff1614610f55576040517f08c379a0000000000000000000000000000000000000000000000000000000008152600401610f4c90613491565b60405180910390fd5b80600760008481526020019081526020016000206006019081610f78919061365d565b505050565b60008073ffffffffffffffffffffffffffffffffffffffff168273ffffffffffffffffffffffffffffffffffffffff1603610fed576040517f08c379a0000000000000000000000000000000000000000000000000000000008152600401610fe4906137a1565b60405180910390fd5b600360008373ffffffffffffffffffffffffffffffffffffffff1673ffffffffffffffffffffffffffffffffffffffff168152602001908152602001600020549050919050565b6000600654905090565b60606001805461104d9061303c565b80601f01602080910402602001604051908101604052809291908181526020018280546110799061303c565b80156110c65780601f1061109b576101008083540402835291602001916110c6565b820191906000526020600020905b8154815290600101906020018083116110a957829003601f168201915b5050505050905090565b6110e26110db6119c7565b8383611e53565b5050565b6110f76110f16119c7565b83611a88565b611136576040517f08c379a000000000000000000000000000000000000000000000000000000000815260040161112d90613203565b60405180910390fd5b61114284848484611fbf565b50505050565b60006007600083815260200190815260200160002060050160019054906101000a900460ff169050919050565b60606111808261197c565b600061118a61201b565b905060008151116111aa57604051806020016040528060008152506111d5565b806111b484612032565b6040516020016111c59291906137fd565b6040516020818303038152906040525b915050919050565b600860009054906101000a900473ffffffffffffffffffffffffffffffffffffffff1681565b60065481565b600080662386f26fc100009050600060405180610140016040528060065481526020013373ffffffffffffffffffffffffffffffffffffffff1681526020018981526020018881526020018781526020016000151581526020018660ff16600281111561127957611278612832565b5b600281111561128b5761128a612832565b5b81526020018560ff1660028111156112a6576112a5612832565b5b60028111156112b8576112b7612832565b5b8152602001604051806020016040528060008152508152602001600067ffffffffffffffff8111156112ed576112ec6129a4565b5b60405190808252806020026020018201604052801561132057816020015b606081526020019060019003908161130b5790505b508152509050806007600060065481526020019081526020016000206000820151816000015560208201518160010160006101000a81548173ffffffffffffffffffffffffffffffffffffffff021916908373ffffffffffffffffffffffffffffffffffffffff16021790555060408201518160020190816113a2919061365d565b5060608201518160030190816113b8919061365d565b5060808201518160040190816113ce919061365d565b5060a08201518160050160006101000a81548160ff02191690831515021790555060c08201518160050160016101000a81548160ff0219169083600281111561141a57611419612832565b5b021790555060e08201518160050160026101000a81548160ff0219169083600281111561144a57611449612832565b5b0217905550610100820151816006019081611465919061365d565b5061012082015181600701908051906020019061148392919061244a565b509050506006600081548092919061149a90613850565b9190505550600860009054906101000a900473ffffffffffffffffffffffffffffffffffffffff1673ffffffffffffffffffffffffffffffffffffffff166108fc839081150290604051600060405180830381858888f19350505050158015611507573d6000803e3d6000fd5b50600060016006546115199190613898565b9050807f8250b7e61eb7eb379d1cb8d82f43cbda010eb85086cf878c2598dabfee0c8c558a8a8a8a8a6040516115539594939291906138db565b60405180910390a280935050505095945050505050565b3373ffffffffffffffffffffffffffffffffffffffff166007600088815260200190815260200160002060010160009054906101000a900473ffffffffffffffffffffffffffffffffffffffff1673ffffffffffffffffffffffffffffffffffffffff161461160e576040517f08c379a0000000000000000000000000000000000000000000000000000000008152600401611605906139b5565b60405180910390fd5b84600760008881526020019081526020016000206002019081611631919061365d565b5083600760008881526020019081526020016000206003019081611655919061365d565b5082600760008881526020019081526020016000206004019081611679919061365d565b50816007600088815260200190815260200160002060050160016101000a81548160ff021916908360028111156116b3576116b2612832565b5b0217905550806007600088815260200190815260200160002060050160026101000a81548160ff021916908360028111156116f1576116f0612832565b5b0217905550505050505050565b6000600560008473ffffffffffffffffffffffffffffffffffffffff1673ffffffffffffffffffffffffffffffffffffffff16815260200190815260200160002060008373ffffffffffffffffffffffffffffffffffffffff1673ffffffffffffffffffffffffffffffffffffffff16815260200190815260200160002060009054906101000a900460ff16905092915050565b60076000838152602001908152602001600020600701819080600181540180825580915050600190039060005260206000200160009091909190915090816117da919061365d565b505050565b600860009054906101000a900473ffffffffffffffffffffffffffffffffffffffff1673ffffffffffffffffffffffffffffffffffffffff163373ffffffffffffffffffffffffffffffffffffffff161461186f576040517f08c379a000000000000000000000000000000000000000000000000000000000815260040161186690613a47565b60405180910390fd5b60065482106118b3576040517f08c379a00000000000000000000000000000000000000000000000000000000081526004016118aa90613ab3565b60405180910390fd5b806007600084815260200190815260200160002060050160006101000a81548160ff0219169083151502179055505050565b60006007600083815260200190815260200160002060050160009054906101000a900460ff169050919050565b60007f01ffc9a7000000000000000000000000000000000000000000000000000000007bffffffffffffffffffffffffffffffffffffffffffffffffffffffff1916827bffffffffffffffffffffffffffffffffffffffffffffffffffffffff1916149050919050565b61198581612100565b6119c4576040517f08c379a00000000000000000000000000000000000000000000000000000000081526004016119bb9061336d565b60405180910390fd5b50565b600033905090565b816004600083815260200190815260200160002060006101000a81548173ffffffffffffffffffffffffffffffffffffffff021916908373ffffffffffffffffffffffffffffffffffffffff160217905550808273ffffffffffffffffffffffffffffffffffffffff16611a4283610dc8565b73ffffffffffffffffffffffffffffffffffffffff167f8c5be1e5ebec7d5bd14f71427d1e84f3dd0314c0f7b2291e5b200ac8c7c3b92560405160405180910390a45050565b600080611a9483610dc8565b90508073ffffffffffffffffffffffffffffffffffffffff168473ffffffffffffffffffffffffffffffffffffffff161480611ad65750611ad581856116fe565b5b80611b1457508373ffffffffffffffffffffffffffffffffffffffff16611afc846107ad565b73ffffffffffffffffffffffffffffffffffffffff16145b91505092915050565b8273ffffffffffffffffffffffffffffffffffffffff16611b3d82610dc8565b73ffffffffffffffffffffffffffffffffffffffff1614611b93576040517f08c379a0000000000000000000000000000000000000000000000000000000008152600401611b8a90613b45565b60405180910390fd5b600073ffffffffffffffffffffffffffffffffffffffff168273ffffffffffffffffffffffffffffffffffffffff1603611c02576040517f08c379a0000000000000000000000000000000000000000000000000000000008152600401611bf990613bd7565b60405180910390fd5b611c0f8383836001612141565b8273ffffffffffffffffffffffffffffffffffffffff16611c2f82610dc8565b73ffffffffffffffffffffffffffffffffffffffff1614611c85576040517f08c379a0000000000000000000000000000000000000000000000000000000008152600401611c7c90613b45565b60405180910390fd5b6004600082815260200190815260200160002060006101000a81549073ffffffffffffffffffffffffffffffffffffffff02191690556001600360008573ffffffffffffffffffffffffffffffffffffffff1673ffffffffffffffffffffffffffffffffffffffff168152602001908152602001600020600082825403925050819055506001600360008473ffffffffffffffffffffffffffffffffffffffff1673ffffffffffffffffffffffffffffffffffffffff16815260200190815260200160002060008282540192505081905550816002600083815260200190815260200160002060006101000a81548173ffffffffffffffffffffffffffffffffffffffff021916908373ffffffffffffffffffffffffffffffffffffffff160217905550808273ffffffffffffffffffffffffffffffffffffffff168473ffffffffffffffffffffffffffffffffffffffff167fddf252ad1be2c89b69c2b068fc378daa952ba7f163c4a11628f55a4df523b3ef60405160405180910390a4611e118383836001612147565b505050565b60006002600083815260200190815260200160002060009054906101000a900473ffffffffffffffffffffffffffffffffffffffff169050919050565b8173ffffffffffffffffffffffffffffffffffffffff168373ffffffffffffffffffffffffffffffffffffffff1603611ec1576040517f08c379a0000000000000000000000000000000000000000000000000000000008152600401611eb890613c43565b60405180910390fd5b80600560008573ffffffffffffffffffffffffffffffffffffffff1673ffffffffffffffffffffffffffffffffffffffff16815260200190815260200160002060008473ffffffffffffffffffffffffffffffffffffffff1673ffffffffffffffffffffffffffffffffffffffff16815260200190815260200160002060006101000a81548160ff0219169083151502179055508173ffffffffffffffffffffffffffffffffffffffff168373ffffffffffffffffffffffffffffffffffffffff167f17307eab39ab6107e8899845ad3d59bd9653f200f220920489ca2b5937696c3183604051611fb291906125d8565b60405180910390a3505050565b611fca848484611b1d565b611fd68484848461214d565b612015576040517f08c379a000000000000000000000000000000000000000000000000000000000815260040161200c90613cd5565b60405180910390fd5b50505050565b606060405180602001604052806000815250905090565b606060006001612041846122d4565b01905060008167ffffffffffffffff8111156120605761205f6129a4565b5b6040519080825280601f01601f1916602001820160405280156120925781602001600182028036833780820191505090505b509050600082602001820190505b6001156120f5578080600190039150507f3031323334353637383961626364656600000000000000000000000000000000600a86061a8153600a85816120e9576120e8613cf5565b5b049450600085036120a0575b819350505050919050565b60008073ffffffffffffffffffffffffffffffffffffffff1661212283611e16565b73ffffffffffffffffffffffffffffffffffffffff1614159050919050565b50505050565b50505050565b600061216e8473ffffffffffffffffffffffffffffffffffffffff16612427565b156122c7578373ffffffffffffffffffffffffffffffffffffffff1663150b7a026121976119c7565b8786866040518563ffffffff1660e01b81526004016121b99493929190613d79565b6020604051808303816000875af19250505080156121f557506040513d601f19601f820116820180604052508101906121f29190613dda565b60015b612277573d8060008114612225576040519150601f19603f3d011682016040523d82523d6000602084013e61222a565b606091505b50600081510361226f576040517f08c379a000000000000000000000000000000000000000000000000000000000815260040161226690613cd5565b60405180910390fd5b805181602001fd5b63150b7a0260e01b7bffffffffffffffffffffffffffffffffffffffffffffffffffffffff1916817bffffffffffffffffffffffffffffffffffffffffffffffffffffffff1916149150506122cc565b600190505b949350505050565b600080600090507a184f03e93ff9f4daa797ed6e38ed64bf6a1f0100000000000000008310612332577a184f03e93ff9f4daa797ed6e38ed64bf6a1f010000000000000000838161232857612327613cf5565b5b0492506040810190505b6d04ee2d6d415b85acef8100000000831061236f576d04ee2d6d415b85acef8100000000838161236557612364613cf5565b5b0492506020810190505b662386f26fc10000831061239e57662386f26fc10000838161239457612393613cf5565b5b0492506010810190505b6305f5e10083106123c7576305f5e10083816123bd576123bc613cf5565b5b0492506008810190505b61271083106123ec5761271083816123e2576123e1613cf5565b5b0492506004810190505b6064831061240f576064838161240557612404613cf5565b5b0492506002810190505b600a831061241e576001810190505b80915050919050565b6000808273ffffffffffffffffffffffffffffffffffffffff163b119050919050565b828054828255906000526020600020908101928215612492579160200282015b82811115612491578251829081612481919061365d565b509160200191906001019061246a565b5b50905061249f91906124a3565b5090565b5b808211156124c357600081816124ba91906124c7565b506001016124a4565b5090565b5080546124d39061303c565b6000825580601f106124e55750612504565b601f0160209004906000526020600020908101906125039190612507565b5b50565b5b80821115612520576000816000905550600101612508565b5090565b6000604051905090565b600080fd5b600080fd5b60007fffffffff0000000000000000000000000000000000000000000000000000000082169050919050565b61256d81612538565b811461257857600080fd5b50565b60008135905061258a81612564565b92915050565b6000602082840312156125a6576125a561252e565b5b60006125b48482850161257b565b91505092915050565b60008115159050919050565b6125d2816125bd565b82525050565b60006020820190506125ed60008301846125c9565b92915050565b600081519050919050565b600082825260208201905092915050565b60005b8381101561262d578082015181840152602081019050612612565b60008484015250505050565b6000601f19601f8301169050919050565b6000612655826125f3565b61265f81856125fe565b935061266f81856020860161260f565b61267881612639565b840191505092915050565b6000602082019050818103600083015261269d818461264a565b905092915050565b6000819050919050565b6126b8816126a5565b81146126c357600080fd5b50565b6000813590506126d5816126af565b92915050565b6000602082840312156126f1576126f061252e565b5b60006126ff848285016126c6565b91505092915050565b600073ffffffffffffffffffffffffffffffffffffffff82169050919050565b600061273382612708565b9050919050565b61274381612728565b82525050565b600060208201905061275e600083018461273a565b92915050565b61276d81612728565b811461277857600080fd5b50565b60008135905061278a81612764565b92915050565b600080604083850312156127a7576127a661252e565b5b60006127b58582860161277b565b92505060206127c6858286016126c6565b9150509250929050565b6000806000606084860312156127e9576127e861252e565b5b60006127f78682870161277b565b93505060206128088682870161277b565b9250506040612819868287016126c6565b9150509250925092565b61282c816126a5565b82525050565b7f4e487b7100000000000000000000000000000000000000000000000000000000600052602160045260246000fd5b6003811061287257612871612832565b5b50565b600081905061288382612861565b919050565b600061289382612875565b9050919050565b6128a381612888565b82525050565b600381106128ba576128b9612832565b5b50565b60008190506128cb826128a9565b919050565b60006128db826128bd565b9050919050565b6128eb816128d0565b82525050565b600061012082019050612907600083018c612823565b612914602083018b61273a565b8181036040830152612926818a61264a565b9050818103606083015261293a818961264a565b9050818103608083015261294e818861264a565b905061295d60a08301876125c9565b61296a60c083018661289a565b61297760e08301856128e2565b81810361010083015261298a818461264a565b90509a9950505050505050505050565b600080fd5b600080fd5b7f4e487b7100000000000000000000000000000000000000000000000000000000600052604160045260246000fd5b6129dc82612639565b810181811067ffffffffffffffff821117156129fb576129fa6129a4565b5b80604052505050565b6000612a0e612524565b9050612a1a82826129d3565b919050565b600067ffffffffffffffff821115612a3a57612a396129a4565b5b612a4382612639565b9050602081019050919050565b82818337600083830152505050565b6000612a72612a6d84612a1f565b612a04565b905082815260208101848484011115612a8e57612a8d61299f565b5b612a99848285612a50565b509392505050565b600082601f830112612ab657612ab561299a565b5b8135612ac6848260208601612a5f565b91505092915050565b60008060408385031215612ae657612ae561252e565b5b6000612af4858286016126c6565b925050602083013567ffffffffffffffff811115612b1557612b14612533565b5b612b2185828601612aa1565b9150509250929050565b600060208284031215612b4157612b4061252e565b5b6000612b4f8482850161277b565b91505092915050565b6000602082019050612b6d6000830184612823565b92915050565b612b7c816125bd565b8114612b8757600080fd5b50565b600081359050612b9981612b73565b92915050565b60008060408385031215612bb657612bb561252e565b5b6000612bc48582860161277b565b9250506020612bd585828601612b8a565b9150509250929050565b600067ffffffffffffffff821115612bfa57612bf96129a4565b5b612c0382612639565b9050602081019050919050565b6000612c23612c1e84612bdf565b612a04565b905082815260208101848484011115612c3f57612c3e61299f565b5b612c4a848285612a50565b509392505050565b600082601f830112612c6757612c6661299a565b5b8135612c77848260208601612c10565b91505092915050565b60008060008060808587031215612c9a57612c9961252e565b5b6000612ca88782880161277b565b9450506020612cb98782880161277b565b9350506040612cca878288016126c6565b925050606085013567ffffffffffffffff811115612ceb57612cea612533565b5b612cf787828801612c52565b91505092959194509250565b6000602082019050612d18600083018461289a565b92915050565b6000612d2982612708565b9050919050565b612d3981612d1e565b82525050565b6000602082019050612d546000830184612d30565b92915050565b600060ff82169050919050565b612d7081612d5a565b8114612d7b57600080fd5b50565b600081359050612d8d81612d67565b92915050565b600080600080600060a08688031215612daf57612dae61252e565b5b600086013567ffffffffffffffff811115612dcd57612dcc612533565b5b612dd988828901612aa1565b955050602086013567ffffffffffffffff811115612dfa57612df9612533565b5b612e0688828901612aa1565b945050604086013567ffffffffffffffff811115612e2757612e26612533565b5b612e3388828901612aa1565b9350506060612e4488828901612d7e565b9250506080612e5588828901612d7e565b9150509295509295909350565b60038110612e6f57600080fd5b50565b600081359050612e8181612e62565b92915050565b60038110612e9457600080fd5b50565b600081359050612ea681612e87565b92915050565b60008060008060008060c08789031215612ec957612ec861252e565b5b6000612ed789828a016126c6565b965050602087013567ffffffffffffffff811115612ef857612ef7612533565b5b612f0489828a01612aa1565b955050604087013567ffffffffffffffff811115612f2557612f24612533565b5b612f3189828a01612aa1565b945050606087013567ffffffffffffffff811115612f5257612f51612533565b5b612f5e89828a01612aa1565b9350506080612f6f89828a01612e72565b92505060a0612f8089828a01612e97565b9150509295509295509295565b60008060408385031215612fa457612fa361252e565b5b6000612fb28582860161277b565b9250506020612fc38582860161277b565b9150509250929050565b60008060408385031215612fe457612fe361252e565b5b6000612ff2858286016126c6565b925050602061300385828601612b8a565b9150509250929050565b7f4e487b7100000000000000000000000000000000000000000000000000000000600052602260045260246000fd5b6000600282049050600182168061305457607f821691505b6020821081036130675761306661300d565b5b50919050565b7f4552433732313a20617070726f76616c20746f2063757272656e74206f776e6560008201527f7200000000000000000000000000000000000000000000000000000000000000602082015250565b60006130c96021836125fe565b91506130d48261306d565b604082019050919050565b600060208201905081810360008301526130f8816130bc565b9050919050565b7f4552433732313a20617070726f76652063616c6c6572206973206e6f7420746f60008201527f6b656e206f776e6572206f7220617070726f76656420666f7220616c6c000000602082015250565b600061315b603d836125fe565b9150613166826130ff565b604082019050919050565b6000602082019050818103600083015261318a8161314e565b9050919050565b7f4552433732313a2063616c6c6572206973206e6f7420746f6b656e206f776e6560008201527f72206f7220617070726f76656400000000000000000000000000000000000000602082015250565b60006131ed602d836125fe565b91506131f882613191565b604082019050919050565b6000602082019050818103600083015261321c816131e0565b9050919050565b7f4f6e6c79207469636b65742063726561746f722063616e207265736f6c76652060008201527f7469636b65740000000000000000000000000000000000000000000000000000602082015250565b600061327f6026836125fe565b915061328a82613223565b604082019050919050565b600060208201905081810360008301526132ae81613272565b9050919050565b7f5469636b657420616c7265616479207265736f6c766564000000000000000000600082015250565b60006132eb6017836125fe565b91506132f6826132b5565b602082019050919050565b6000602082019050818103600083015261331a816132de565b9050919050565b7f4552433732313a20696e76616c696420746f6b656e2049440000000000000000600082015250565b60006133576018836125fe565b915061336282613321565b602082019050919050565b600060208201905081810360008301526133868161334a565b9050919050565b7f5469636b6574206d757374206265207265736f6c76656420746f207375626d6960008201527f74206120736f6c7574696f6e0000000000000000000000000000000000000000602082015250565b60006133e9602c836125fe565b91506133f48261338d565b604082019050919050565b60006020820190508181036000830152613418816133dc565b9050919050565b7f4f6e6c79207469636b65742063726561746f722063616e207375626d6974206160008201527f20736f6c7574696f6e0000000000000000000000000000000000000000000000602082015250565b600061347b6029836125fe565b91506134868261341f565b604082019050919050565b600060208201905081810360008301526134aa8161346e565b9050919050565b60008190508160005260206000209050919050565b60006020601f8301049050919050565b600082821b905092915050565b6000600883026135137fffffffffffffffffffffffffffffffffffffffffffffffffffffffffffffffff826134d6565b61351d86836134d6565b95508019841693508086168417925050509392505050565b6000819050919050565b600061355a613555613550846126a5565b613535565b6126a5565b9050919050565b6000819050919050565b6135748361353f565b61358861358082613561565b8484546134e3565b825550505050565b600090565b61359d613590565b6135a881848461356b565b505050565b5b818110156135cc576135c1600082613595565b6001810190506135ae565b5050565b601f821115613611576135e2816134b1565b6135eb846134c6565b810160208510156135fa578190505b61360e613606856134c6565b8301826135ad565b50505b505050565b600082821c905092915050565b600061363460001984600802613616565b1980831691505092915050565b600061364d8383613623565b9150826002028217905092915050565b613666826125f3565b67ffffffffffffffff81111561367f5761367e6129a4565b5b613689825461303c565b6136948282856135d0565b600060209050601f8311600181146136c757600084156136b5578287015190505b6136bf8582613641565b865550613727565b601f1984166136d5866134b1565b60005b828110156136fd578489015182556001820191506020850194506020810190506136d8565b8683101561371a5784890151613716601f891682613623565b8355505b6001600288020188555050505b505050505050565b7f4552433732313a2061646472657373207a65726f206973206e6f74206120766160008201527f6c6964206f776e65720000000000000000000000000000000000000000000000602082015250565b600061378b6029836125fe565b91506137968261372f565b604082019050919050565b600060208201905081810360008301526137ba8161377e565b9050919050565b600081905092915050565b60006137d7826125f3565b6137e181856137c1565b93506137f181856020860161260f565b80840191505092915050565b600061380982856137cc565b915061381582846137cc565b91508190509392505050565b7f4e487b7100000000000000000000000000000000000000000000000000000000600052601160045260246000fd5b600061385b826126a5565b91507fffffffffffffffffffffffffffffffffffffffffffffffffffffffffffffffff820361388d5761388c613821565b5b600182019050919050565b60006138a3826126a5565b91506138ae836126a5565b92508282039050818111156138c6576138c5613821565b5b92915050565b6138d581612d5a565b82525050565b600060a08201905081810360008301526138f5818861264a565b90508181036020830152613909818761264a565b9050818103604083015261391d818661264a565b905061392c60608301856138cc565b61393960808301846138cc565b9695505050505050565b7f4f6e6c79207469636b65742063726561746f722063616e20757064617465207460008201527f69636b6574000000000000000000000000000000000000000000000000000000602082015250565b600061399f6025836125fe565b91506139aa82613943565b604082019050919050565b600060208201905081810360008301526139ce81613992565b9050919050565b7f4f6e6c7920636f6e7472616374206f776e65722063616e206368616e6765207460008201527f69636b6574207374617475730000000000000000000000000000000000000000602082015250565b6000613a31602c836125fe565b9150613a3c826139d5565b604082019050919050565b60006020820190508181036000830152613a6081613a24565b9050919050565b7f496e76616c6964207469636b6574204944000000000000000000000000000000600082015250565b6000613a9d6011836125fe565b9150613aa882613a67565b602082019050919050565b60006020820190508181036000830152613acc81613a90565b9050919050565b7f4552433732313a207472616e736665722066726f6d20696e636f72726563742060008201527f6f776e6572000000000000000000000000000000000000000000000000000000602082015250565b6000613b2f6025836125fe565b9150613b3a82613ad3565b604082019050919050565b60006020820190508181036000830152613b5e81613b22565b9050919050565b7f4552433732313a207472616e7366657220746f20746865207a65726f2061646460008201527f7265737300000000000000000000000000000000000000000000000000000000602082015250565b6000613bc16024836125fe565b9150613bcc82613b65565b604082019050919050565b60006020820190508181036000830152613bf081613bb4565b9050919050565b7f4552433732313a20617070726f766520746f2063616c6c657200000000000000600082015250565b6000613c2d6019836125fe565b9150613c3882613bf7565b602082019050919050565b60006020820190508181036000830152613c5c81613c20565b9050919050565b7f4552433732313a207472616e7366657220746f206e6f6e20455243373231526560008201527f63656976657220696d706c656d656e7465720000000000000000000000000000602082015250565b6000613cbf6032836125fe565b9150613cca82613c63565b604082019050919050565b60006020820190508181036000830152613cee81613cb2565b9050919050565b7f4e487b7100000000000000000000000000000000000000000000000000000000600052601260045260246000fd5b600081519050919050565b600082825260208201905092915050565b6000613d4b82613d24565b613d558185613d2f565b9350613d6581856020860161260f565b613d6e81612639565b840191505092915050565b6000608082019050613d8e600083018761273a565b613d9b602083018661273a565b613da86040830185612823565b8181036060830152613dba8184613d40565b905095945050505050565b600081519050613dd481612564565b92915050565b600060208284031215613df057613def61252e565b5b6000613dfe84828501613dc5565b9150509291505056fea26469706673582212206d075ae38863b389e7a39cddb30b63a0f5dc56209daf1aa11a447e84b1d2e80564736f6c63430008130033",
  "immutableReferences": {},
  "source": "//SPDX-License-Identifier: UNLICENSED\n\n//Name 1: Joshua Wajnryb\n//UBIT 1: jwajnryb\n//Person Number 1: 50366137\n\n//Name 2: Naglis Paunksnis\n//UBIT 2: naglispa\n//Person Number 2: 50306281\n\npragma solidity ^0.8.0;\n\nimport \"@openzeppelin/contracts/token/ERC721/ERC721.sol\";\n\n/*\ninterface ERC721 {\n\n   event Transfer(address indexed _from, address indexed _to, uint256 indexed _tokenId);\n   event Approval(address indexed _owner, address indexed _approved, uint256 indexed _tokenId);\n   event ApprovalForAll(address indexed _owner, address indexed _operator, bool _approved);\n\n   function balanceOf(address _owner) external view returns (uint256);\n   function ownerOf(uint256 _tokenId) external view returns (address);\n\n   function safeTransferFrom(address _from, address _to, uint256 _tokenId, bytes memory data) external payable;\n   function safeTransferFrom(address _from, address _to, uint256 _tokenId) external payable;\n   function transferFrom(address _from, address _to, uint256 _tokenId) external payable;\n\n   function approve(address _approved, uint256 _tokenId) external payable;\n   function setApprovalForAll(address _operator, bool _approved) external;\n   function getApproved(uint256 _tokenId) external view returns (address);\n   function isApprovedForAll(address _owner, address _operator) external view returns (bool);\n\n}\n\ninterface ERC721Metadata {\n\n    function name() external view returns (string memory _name);\n    function symbol() external view returns (string memory _symbol);\n    function tokenURI(uint256 _tokenId) external view returns (string memory);\n\n}\n*/\n\npragma solidity ^0.8.0;\n\ncontract ITHelpdesk is ERC721(\"CryptoTechSupport\", \"CTS\") {\n\n    enum DeviceType {Laptop, Desktop, Mobile}\n    enum TicketStatus {Open, InProgress, Resolved}\n    enum Difficulty {Easy, Medium, Hard}\n\n    struct Ticket {\n        uint256 id;\n        address user;\n        string title;\n        string issue;\n        string description;\n        bool resolved;\n        Difficulty difficulty;\n        DeviceType deviceType;\n        string solution;\n        string[] notes;\n    }\n\n    uint256 public ticketCount;\n    mapping(uint256 => Ticket) public tickets;\n\n    address payable public contractOwner;\n\n    constructor() {\n        contractOwner = payable(msg.sender);\n    }\n\n    event TicketCreated(uint256 indexed ticketId, string title, string issue, string description, uint8 difficulty, uint8 deviceType);\n\n    function createTicket(string memory _title, string memory _issue, string memory _description, uint8 _difficulty, uint8 _deviceType) public payable returns (uint256) {\n        uint256 paymentAmount = 10**16; // 0.01 ETH\n\n        Ticket memory newTicket = Ticket(ticketCount, msg.sender, _title, _issue, _description, false, Difficulty(_difficulty), DeviceType(_deviceType), \"\", new string[](0));\n        tickets[ticketCount] = newTicket;\n        ticketCount++;\n\n        // Transfer payment to contract owner\n        contractOwner.transfer(paymentAmount);\n\n        uint256 newTicketId = ticketCount - 1;\n\n        emit TicketCreated(newTicketId, _title, _issue, _description, _difficulty, _deviceType);\n        return newTicketId;\n    }\n\n    function updateTicket(uint256 _ticketId, string memory _title, string memory _issue, string memory _description, Difficulty _difficulty, DeviceType _deviceType) public {\n        require(tickets[_ticketId].user == msg.sender, \"Only ticket creator can update ticket\");\n        tickets[_ticketId].title = _title;\n        tickets[_ticketId].issue = _issue;\n        tickets[_ticketId].description = _description;\n        tickets[_ticketId].difficulty = _difficulty;\n        tickets[_ticketId].deviceType = _deviceType;\n    }\n\n    function changeStatus(uint256 _ticketId, bool _resolved) public {\n        require(msg.sender == contractOwner, \"Only contract owner can change ticket status\");\n        require(_ticketId < ticketCount, \"Invalid ticket ID\");\n        tickets[_ticketId].resolved = _resolved;\n    }\n\n    function ticketSolution(uint256 _ticketId, string memory _solution) public {\n        require(tickets[_ticketId].resolved, \"Ticket must be resolved to submit a solution\");\n        require(tickets[_ticketId].user == msg.sender, \"Only ticket creator can submit a solution\");\n        tickets[_ticketId].solution = _solution;\n    }\n\n    function ticketNotes(uint256 _ticketId, string memory _note) public {\n        tickets[_ticketId].notes.push(_note);\n    }\n\n    function resolveTicket(uint256 _ticketId) public {\n        require(tickets[_ticketId].user == msg.sender, \"Only ticket creator can resolve ticket\");\n        require(!tickets[_ticketId].resolved, \"Ticket already resolved\");\n        tickets[_ticketId].resolved = true;\n        payable(msg.sender).transfer(1 ether);\n    }\n\n    function getTicketStatus(uint256 _ticketId) public view returns (bool) {\n        return tickets[_ticketId].resolved;\n    }\n\n    function getTicketDifficulty(uint256 _ticketId) public view returns (Difficulty) {\n        return tickets[_ticketId].difficulty;\n    }\n\n    function getNumberOfTickets() public view returns (uint256) {\n        return ticketCount;\n    }\n}",
  "sourcePath": "/Users/joshuawajnryb/Desktop/BlockchainProject2/CTS-contract/contracts/ITHelpdesk.sol",
  "compiler": {
    "name": "solc",
    "version": "0.8.19+commit.7dd6d404.Emscripten.clang"
  },
  "schemaVersion": "3.4.13",
  "updatedAt": "2023-05-04T17:37:40.460Z",
  "devdoc": {
    "events": {
      "Approval(address,address,uint256)": {
        "details": "Emitted when `owner` enables `approved` to manage the `tokenId` token."
      },
      "ApprovalForAll(address,address,bool)": {
        "details": "Emitted when `owner` enables or disables (`approved`) `operator` to manage all of its assets."
      },
      "Transfer(address,address,uint256)": {
        "details": "Emitted when `tokenId` token is transferred from `from` to `to`."
      }
    },
    "kind": "dev",
    "methods": {
      "approve(address,uint256)": {
        "details": "See {IERC721-approve}."
      },
      "balanceOf(address)": {
        "details": "See {IERC721-balanceOf}."
      },
      "getApproved(uint256)": {
        "details": "See {IERC721-getApproved}."
      },
      "isApprovedForAll(address,address)": {
        "details": "See {IERC721-isApprovedForAll}."
      },
      "name()": {
        "details": "See {IERC721Metadata-name}."
      },
      "ownerOf(uint256)": {
        "details": "See {IERC721-ownerOf}."
      },
      "safeTransferFrom(address,address,uint256)": {
        "details": "See {IERC721-safeTransferFrom}."
      },
      "safeTransferFrom(address,address,uint256,bytes)": {
        "details": "See {IERC721-safeTransferFrom}."
      },
      "setApprovalForAll(address,bool)": {
        "details": "See {IERC721-setApprovalForAll}."
      },
      "supportsInterface(bytes4)": {
        "details": "See {IERC165-supportsInterface}."
      },
      "symbol()": {
        "details": "See {IERC721Metadata-symbol}."
      },
      "tokenURI(uint256)": {
        "details": "See {IERC721Metadata-tokenURI}."
      },
      "transferFrom(address,address,uint256)": {
        "details": "See {IERC721-transferFrom}."
      }
    },
    "version": 1
  },
  "userdoc": {
    "kind": "user",
    "methods": {},
    "version": 1
  }
}